{
  "contractName": "MetaCoin",
  "abi": [
    {
      "inputs": [],
      "payable": false,
      "stateMutability": "nonpayable",
      "type": "constructor"
    },
    {
      "anonymous": false,
      "inputs": [
        {
          "indexed": true,
          "name": "_from",
          "type": "address"
        },
        {
          "indexed": true,
          "name": "_to",
          "type": "address"
        },
        {
          "indexed": false,
          "name": "_value",
          "type": "uint256"
        }
      ],
      "name": "Transfer",
      "type": "event"
    },
    {
      "constant": false,
      "inputs": [
        {
          "name": "receiver",
          "type": "address"
        },
        {
          "name": "amount",
          "type": "uint256"
        },
        {
          "name": "name",
          "type": "string"
        },
        {
          "name": "id",
          "type": "string"
        }
      ],
      "name": "sendCoin",
      "outputs": [
        {
          "name": "sufficient",
          "type": "bool"
        }
      ],
      "payable": false,
      "stateMutability": "nonpayable",
      "type": "function"
    },
    {
      "constant": true,
      "inputs": [
        {
          "name": "receiver",
          "type": "address"
        }
      ],
      "name": "getInfoPrevious",
      "outputs": [
        {
          "name": "",
          "type": "string"
        },
        {
          "name": "",
          "type": "uint256"
        },
        {
          "name": "",
          "type": "string"
        }
      ],
      "payable": false,
      "stateMutability": "view",
      "type": "function"
    },
    {
      "constant": true,
      "inputs": [
        {
          "name": "id",
          "type": "string"
        }
      ],
      "name": "getTransactionByID",
      "outputs": [
        {
          "name": "",
          "type": "uint256"
        },
        {
          "name": "",
          "type": "string"
        },
        {
          "name": "",
          "type": "address"
        }
      ],
      "payable": false,
      "stateMutability": "view",
      "type": "function"
    },
    {
      "constant": true,
      "inputs": [],
      "name": "GetTrailCount",
      "outputs": [
        {
          "name": "",
          "type": "uint8"
        }
      ],
      "payable": false,
      "stateMutability": "pure",
      "type": "function"
    },
    {
      "constant": true,
      "inputs": [
        {
          "name": "TrailNo",
          "type": "uint8"
        }
      ],
      "name": "GetLocation",
      "outputs": [
        {
          "name": "",
          "type": "string"
        },
        {
          "name": "",
          "type": "uint256"
        },
        {
          "name": "",
          "type": "address"
        }
      ],
      "payable": false,
      "stateMutability": "view",
      "type": "function"
    },
    {
      "constant": true,
      "inputs": [
        {
          "name": "addr",
          "type": "address"
        }
      ],
      "name": "getBalanceInEth",
      "outputs": [
        {
          "name": "",
          "type": "uint256"
        }
      ],
      "payable": false,
      "stateMutability": "view",
      "type": "function"
    },
    {
      "constant": true,
      "inputs": [
        {
          "name": "addr",
          "type": "address"
        }
      ],
      "name": "getBalance",
      "outputs": [
        {
          "name": "",
          "type": "uint256"
        }
      ],
      "payable": false,
      "stateMutability": "view",
      "type": "function"
    },
    {
      "constant": true,
      "inputs": [],
      "name": "getaddress",
      "outputs": [
        {
          "name": "",
          "type": "address"
        }
      ],
      "payable": false,
      "stateMutability": "view",
      "type": "function"
    }
  ],
  "bytecode": "0x60806040526000600360006101000a81548160ff021916908360ff16021790555034801561002c57600080fd5b50612710600460003273ffffffffffffffffffffffffffffffffffffffff1673ffffffffffffffffffffffffffffffffffffffff168152602001908152602001600020819055506115e2806100826000396000f3fe60806040526004361061008e576000357c0100000000000000000000000000000000000000000000000000000000900463ffffffff168063252bd4d3146100935780633e5d88d6146100ea57806370a9db31146102275780637bd703e8146103a257806389890cf514610407578063bbe42af8146105a8578063e3fd1ec2146105d9578063f8b2cb4f146106ca575b600080fd5b34801561009f57600080fd5b506100a861072f565b604051808273ffffffffffffffffffffffffffffffffffffffff1673ffffffffffffffffffffffffffffffffffffffff16815260200191505060405180910390f35b3480156100f657600080fd5b506101396004803603602081101561010d57600080fd5b81019080803573ffffffffffffffffffffffffffffffffffffffff169060200190929190505050610737565b604051808060200184815260200180602001838103835286818151815260200191508051906020019080838360005b83811015610183578082015181840152602081019050610168565b50505050905090810190601f1680156101b05780820380516001836020036101000a031916815260200191505b50838103825284818151815260200191508051906020019080838360005b838110156101e95780820151818401526020810190506101ce565b50505050905090810190601f1680156102165780820380516001836020036101000a031916815260200191505b509550505050505060405180910390f35b34801561023357600080fd5b506102ed6004803603602081101561024a57600080fd5b810190808035906020019064010000000081111561026757600080fd5b82018360208201111561027957600080fd5b8035906020019184600183028401116401000000008311171561029b57600080fd5b91908080601f016020809104026020016040519081016040528093929190818152602001838380828437600081840152601f19601f8201169050808301925050505050505091929192905050506109f4565b60405180848152602001806020018373ffffffffffffffffffffffffffffffffffffffff1673ffffffffffffffffffffffffffffffffffffffff168152602001828103825284818151815260200191508051906020019080838360005b8381101561036557808201518184015260208101905061034a565b50505050905090810190601f1680156103925780820380516001836020036101000a031916815260200191505b5094505050505060405180910390f35b3480156103ae57600080fd5b506103f1600480360360208110156103c557600080fd5b81019080803573ffffffffffffffffffffffffffffffffffffffff169060200190929190505050610c0f565b6040518082815260200191505060405180910390f35b34801561041357600080fd5b5061058e6004803603608081101561042a57600080fd5b81019080803573ffffffffffffffffffffffffffffffffffffffff169060200190929190803590602001909291908035906020019064010000000081111561047157600080fd5b82018360208201111561048357600080fd5b803590602001918460018302840111640100000000831117156104a557600080fd5b91908080601f016020809104026020016040519081016040528093929190818152602001838380828437600081840152601f19601f8201169050808301925050505050505091929192908035906020019064010000000081111561050857600080fd5b82018360208201111561051a57600080fd5b8035906020019184600183028401116401000000008311171561053c57600080fd5b91908080601f016020809104026020016040519081016040528093929190818152602001838380828437600081840152601f19601f820116905080830192505050505050509192919290505050610ccf565b604051808215151515815260200191505060405180910390f35b3480156105b457600080fd5b506105bd611233565b604051808260ff1660ff16815260200191505060405180910390f35b3480156105e557600080fd5b50610615600480360360208110156105fc57600080fd5b81019080803560ff16906020019092919050505061124a565b60405180806020018481526020018373ffffffffffffffffffffffffffffffffffffffff1673ffffffffffffffffffffffffffffffffffffffff168152602001828103825285818151815260200191508051906020019080838360005b8381101561068d578082015181840152602081019050610672565b50505050905090810190601f1680156106ba5780820380516001836020036101000a031916815260200191505b5094505050505060405180910390f35b3480156106d657600080fd5b50610719600480360360208110156106ed57600080fd5b81019080803573ffffffffffffffffffffffffffffffffffffffff169060200190929190505050611365565b6040518082815260200191505060405180910390f35b600033905090565b606060006060806000808673ffffffffffffffffffffffffffffffffffffffff1673ffffffffffffffffffffffffffffffffffffffff1681526020019081526020016000208054600181600116156101000203166002900480601f0160208091040260200160405190810160405280929190818152602001828054600181600116156101000203166002900480156108105780601f106107e557610100808354040283529160200191610810565b820191906000526020600020905b8154815290600101906020018083116107f357829003601f168201915b5050505050905060008151141561086b576000816040805190810160405280600481526020017f4e756c6c000000000000000000000000000000000000000000000000000000008152509190819150935093509350506109ed565b6001816040518082805190602001908083835b6020831015156108a3578051825260208201915060208101905060208303925061087e565b6001836020036101000a03801982511681845116808217855250505050505090500191505090815260200160405180910390206000016001826040518082805190602001908083835b60208310151561091157805182526020820191506020810190506020830392506108ec565b6001836020036101000a03801982511681845116808217855250505050505090500191505090815260200160405180910390206004015482828054600181600116156101000203166002900480601f0160208091040260200160405190810160405280929190818152602001828054600181600116156101000203166002900480156109de5780601f106109b3576101008083540402835291602001916109de565b820191906000526020600020905b8154815290600101906020018083116109c157829003601f168201915b50505050509250935093509350505b9193909250565b6000606060006001846040518082805190602001908083835b602083101515610a325780518252602082019150602081019050602083039250610a0d565b6001836020036101000a0380198251168184511680821785525050505050509050019150509081526020016040518091039020600401546001856040518082805190602001908083835b602083101515610aa15780518252602082019150602081019050602083039250610a7c565b6001836020036101000a03801982511681845116808217855250505050505090500191505090815260200160405180910390206000016001866040518082805190602001908083835b602083101515610b0f5780518252602082019150602081019050602083039250610aea565b6001836020036101000a038019825116818451168082178552505050505050905001915050908152602001604051809103902060010160009054906101000a900473ffffffffffffffffffffffffffffffffffffffff16818054600181600116156101000203166002900480601f016020809104026020016040519081016040528092919081815260200182805460018160011615610100020316600290048015610bfb5780601f10610bd057610100808354040283529160200191610bfb565b820191906000526020600020905b815481529060010190602001808311610bde57829003601f168201915b505050505091509250925092509193909250565b600073__ConvertLib____________________________6396e4ee3d610c3484611365565b60026040518363ffffffff167c0100000000000000000000000000000000000000000000000000000000028152600401808381526020018281526020019250505060206040518083038186803b158015610c8d57600080fd5b505af4158015610ca1573d6000803e3d6000fd5b505050506040513d6020811015610cb757600080fd5b81019080805190602001909291905050509050919050565b6000610cd96113ae565b85816020019073ffffffffffffffffffffffffffffffffffffffff16908173ffffffffffffffffffffffffffffffffffffffff16815250504281606001818152505083816000018190525084816080018181525050826000808873ffffffffffffffffffffffffffffffffffffffff1673ffffffffffffffffffffffffffffffffffffffff1681526020019081526020016000209080519060200190610d8092919061140a565b506000600360009054906101000a900460ff1660ff16141515610e1e5760026000600360009054906101000a900460ff1660ff16815260200190815260200160002060010160009054906101000a900473ffffffffffffffffffffffffffffffffffffffff16816040019073ffffffffffffffffffffffffffffffffffffffff16908173ffffffffffffffffffffffffffffffffffffffff16815250505b8060026000600360009054906101000a900460ff1660ff1681526020019081526020016000206000820151816000019080519060200190610e6092919061148a565b5060208201518160010160006101000a81548173ffffffffffffffffffffffffffffffffffffffff021916908373ffffffffffffffffffffffffffffffffffffffff16021790555060408201518160020160006101000a81548173ffffffffffffffffffffffffffffffffffffffff021916908373ffffffffffffffffffffffffffffffffffffffff160217905550606082015181600301556080820151816004015590505060026000600360009054906101000a900460ff1660ff1681526020019081526020016000206001846040518082805190602001908083835b602083101515610f635780518252602082019150602081019050602083039250610f3e565b6001836020036101000a038019825116818451168082178552505050505050905001915050908152602001604051809103902060008201816000019080546001816001161561010002031660029004610fbd92919061150a565b506001820160009054906101000a900473ffffffffffffffffffffffffffffffffffffffff168160010160006101000a81548173ffffffffffffffffffffffffffffffffffffffff021916908373ffffffffffffffffffffffffffffffffffffffff1602179055506002820160009054906101000a900473ffffffffffffffffffffffffffffffffffffffff168160020160006101000a81548173ffffffffffffffffffffffffffffffffffffffff021916908373ffffffffffffffffffffffffffffffffffffffff16021790555060038201548160030155600482015481600401559050506003600081819054906101000a900460ff168092919060010191906101000a81548160ff021916908360ff1602179055505084600460003373ffffffffffffffffffffffffffffffffffffffff1673ffffffffffffffffffffffffffffffffffffffff16815260200190815260200160002054101561112657600091505061122b565b84600460003373ffffffffffffffffffffffffffffffffffffffff1673ffffffffffffffffffffffffffffffffffffffff1681526020019081526020016000206000828254039250508190555084600460008873ffffffffffffffffffffffffffffffffffffffff1673ffffffffffffffffffffffffffffffffffffffff168152602001908152602001600020600082825401925050819055508573ffffffffffffffffffffffffffffffffffffffff163373ffffffffffffffffffffffffffffffffffffffff167fddf252ad1be2c89b69c2b068fc378daa952ba7f163c4a11628f55a4df523b3ef876040518082815260200191505060405180910390a360019150505b949350505050565b6000600360009054906101000a900460ff16905090565b6060600080600260008560ff168152602001908152602001600020600001600260008660ff16815260200190815260200160002060040154600260008760ff16815260200190815260200160002060010160009054906101000a900473ffffffffffffffffffffffffffffffffffffffff16828054600181600116156101000203166002900480601f0160208091040260200160405190810160405280929190818152602001828054600181600116156101000203166002900480156113515780601f1061132657610100808354040283529160200191611351565b820191906000526020600020905b81548152906001019060200180831161133457829003601f168201915b505050505092509250925092509193909250565b6000600460008373ffffffffffffffffffffffffffffffffffffffff1673ffffffffffffffffffffffffffffffffffffffff168152602001908152602001600020549050919050565b60a06040519081016040528060608152602001600073ffffffffffffffffffffffffffffffffffffffff168152602001600073ffffffffffffffffffffffffffffffffffffffff16815260200160008152602001600081525090565b828054600181600116156101000203166002900490600052602060002090601f016020900481019282601f1061144b57805160ff1916838001178555611479565b82800160010185558215611479579182015b8281111561147857825182559160200191906001019061145d565b5b5090506114869190611591565b5090565b828054600181600116156101000203166002900490600052602060002090601f016020900481019282601f106114cb57805160ff19168380011785556114f9565b828001600101855582156114f9579182015b828111156114f85782518255916020019190600101906114dd565b5b5090506115069190611591565b5090565b828054600181600116156101000203166002900490600052602060002090601f016020900481019282601f106115435780548555611580565b8280016001018555821561158057600052602060002091601f016020900482015b8281111561157f578254825591600101919060010190611564565b5b50905061158d9190611591565b5090565b6115b391905b808211156115af576000816000905550600101611597565b5090565b9056fea165627a7a72305820a9bf123922ef363ef5a39a558f2e1e261411095c42507f64e72fa8342dfb7a170029",
  "source": "pragma solidity >=0.4.21 <0.6.0;\n\nimport \"./ConvertLib.sol\";\n\ncontract MetaCoin {\n    struct Location{\n      string name;\n      address Receiver; // address => 30bytes 고정 Ethereum 계정주소\n      address PreviousLocationId; // 이전 위치 파악을 위한 30bytes 고정 Ethereum 계정주소\n      uint Timestamp; // 이슈가 일어난 날짜와 시간을 기록하여 사실 존재를 증명하는 전후 관계를 보장\n      uint amount; // 기부자가 기부한 기부금의 양\n    }\n\n    mapping (address => string)  getID;\n    mapping (string => Location) ID;\n    mapping (uint => Location)  Trail;\n    uint8 TrailCount = 0;\n    mapping (address => uint) balances;\n\n    event Transfer(address indexed _from, address indexed _to, uint256 _value); // 송금 event _from => msg.sender 과 _to => receiver 와 _value => amount 값 입력\n\n    constructor() public {\n        balances[tx.origin] = 10000;\n    }\n    // 계약 생성자의 초기 balance 값을 10000 지정\n\n    function sendCoin(address receiver, uint amount, string memory name, string memory id) public returns(bool sufficient)\n    {\n        Location memory newLocation;\n        newLocation.Receiver = receiver; //newLocation의 Receiver값 => sendCoin의 receiver 계정주소\n        newLocation.Timestamp = now; // now를 통해 현재시간 기준으로 newLocation의 Timestamp값 지\n        newLocation.name = name; //sendCoin의 name => newLocation의 name\n        newLocation.amount = amount; // sendCoin의 amount => newLocation의 amount\n        getID[receiver] = id;\n\n        if(TrailCount !=0) // TrailCount의 값이 0이 아닐경우 수행\n        {\n            newLocation.PreviousLocationId = Trail[TrailCount].Receiver; // Trail[TrailCount]의 Receiver를 newLocation의 PreviousLocationId로 입력\n        }\n\n        Trail[TrailCount] = newLocation;\n        ID[id] = Trail[TrailCount];\n        TrailCount++;\n        // newLocation이 발생할 때마다 Trail 배열에 저장 => Trail[TrailCount]의 값을 ID[id]에 저장\n        // 이후 TrailCount++\n\n        if(balances[msg.sender] < amount) return false;\n        // msg.sender의 bakance의 값이 기부금 보다 작으면 bool 값 false로 수행 종료\n        balances[msg.sender] -= amount;\n        balances[receiver] += amount;\n\n        emit Transfer(msg.sender, receiver, amount);\n        return true;\n        // 위에서 정의한 event에 msg.sender, receiver, amount의 값을 넣어 event 수행 후 bool 값 true로서 실행\n        }\n\n        function getInfoPrevious(address receiver) public view returns(string memory, uint, string memory) {\n            string memory id = getID[receiver];\n            if (bytes(id).length == 0) {\n                return (\"Null\",0,id);\n            }\n            return (ID[id].name,ID[id].amount,id);\n            //  receiver 계정 주소에 대해 id로서 이름과 기부금 id return\n        }\n\n        function getTransactionByID(string memory id) public view returns(uint, string memory, address) {\n\t\t        return (ID[id].amount,ID[id].name,ID[id].Receiver);\n\t      }\n            // Transaction에 대한 기부금과 이름 받은 계정 주소 return\n\n \t      function GetTrailCount() public pure returns(uint8){\n            return MetaCoin.TrailCount;\n        }\n            // MetaCoin의 TrailCount return\n\n        function GetLocation(uint8 TrailNo) public view returns (string memory, uint, address)\n        {\n            return (Trail[TrailNo].name,Trail[TrailNo].amount,Trail[TrailNo].Receiver);\n        }\n\n\t      function getBalanceInEth(address addr) public view returns(uint){\n\t\t        return ConvertLib.convert(getBalance(addr),2);\n\t      }\n\n\t      function getBalance(address addr) public view returns(uint) {\n\t\t      return balances[addr];\n\t     }\n\n\t      function getaddress() public view returns(address) {\n\t\t       return msg.sender;\n\t      }\n\n  }\n",
  "sourcePath": "/home/blockchain/ethereum/truffle/donation/contracts/MetaCoin.sol",
  "compiler": {
    "name": "solc",
    "version": "0.5.0+commit.1d4f565a.Emscripten.clang"
  },
  "schemaVersion": "3.0.9",
  "updatedAt": "2019-05-19T13:10:51.783Z",
  "devdoc": {
    "methods": {}
  },
  "userdoc": {
    "methods": {}
  }
}